:100000000C9439010C949F0E0C94CC0E0C9461014D
:100010000C9461010C9461010C9461010C946101D8
:100020000C9461010C9461010C9461010C946101C8
:100030000C9461010C9461010C9461010C946101B8
:100040000C940B0F0C9461010C948D0C0C94BF0C50
:100050000C9461010C9461010C9461010C94610198
:100060000C9440080C946101736574757020310024
:10007000736574757020300000FE00FAF8F6F70022
:1000800000FFFDFBF909B20000000000006126003E
:1000900000007773717AE9000063786465272200B5
:1000A0000020766674722800006E626867792D0001
:1000B00000002C6A75E85F00003B6B696FE0E700A9
:1000C000003A216C6D7029000000F9005E3D0000CF
:1000D00000000D24002A0000003C000000007F000A
:1000E0000031003437000000302E323536381B0026
:1000F000002B332D2A390000000000FC0000000016
:1001000000000000000000000000000000090000E6
:10011000000000000041310000005753515A3200E6
:1001200000435844453433000020564654523500AD
:10013000004E42484759360000003F4A55373800C4
:10014000002E4B494F303900002FA74C4D50B000C6
:1001500000002500A82B000000000DA300B5000042
:10016000003E000000007F00003100343700000036
:10017000302E323536381B00002B332D2A39000043
:10018000000000000000000001000000000000006E
:100190000000000000000900000000000000400016
:1001A000000000000000007E0000000000007B2333
:1001B0000000000000000000000000000000007CC3
:1001C000000000000000605C000000000000405ED5
:1001D000000000000000005D000000000000007D45
:1001E0000000000DA400230000007C000000007F40
:1001F000000031003437000000302E323536381B15
:1002000000002B332D2A3900000000000000000000
:1002100000000000080002010000030407000000C5
:1002200000000000000102040810204080010204C8
:10023000081020010204081020040404040404042B
:10024000040202020202020303030303030000008C
:100250000023002600290000000000250028002BB4
:100260000000000000240027002A0000E504040A22
:10027000EF0C11241FBECFEFD8E0DEBFCDBF11E0E1
:10028000A0E0B1E0EEEFF8E202C005900D92A23FCF
:10029000B107D9F723E0A2EFB1E001C01D92A43F5E
:1002A000B207E1F712E0C2E7D2E004C02297FE01F4
:1002B0000E948110CC36D107C9F70E94FA0E0C9427
:1002C0007D140C940000CF93DF93EC010E949607FD
:1002D000CE01DF91CF910C946B07CF93DF93EC01AC
:1002E0000E94A0074FEF5FEF60E088E090E00E947F
:1002F0002A064FEF5FEF60E089E090E00E942A0657
:100300004FEF5FEF60E08AE090E00E942A064FEF37
:100310005FEF60E08BE090E00E942A06CE01DF9163
:10032000CF910C94A007FC01278D222321F0268D6C
:1003300021110C946D010895CF93DF93EC018F8D03
:10034000882381F08E8D81110DC080911502882344
:1003500049F0CE010E9498078091210290912202DB
:100360000E940C038F8D882391F08E8D81110FC018
:1003700080911202882359F0CE010E949807809143
:100380001B0290911C02DF91CF910C943E02DF91F1
:10039000CF910895CF93DF93EC010E94BB07CE016C
:1003A0000E949301CE01DF91CF910C949C01CF93D9
:1003B000DF93EC010E949607CE01DF91CF910C9460
:1003C0006B07CF93DF93EC010E94A0074FEF5FEF25
:1003D00061E088E090E00E942A064FEF5FEF60E066
:1003E00089E090E00E942A064FEF5FEF60E08BE02B
:1003F00090E00E942A064FEF5FEF60E08AE090E015
:100400000E942A06CE01DF91CF910C94A007FC0137
:10041000278D222321F0268D21110C94E1010895CE
:10042000CF93DF93EC018F8D882381F08E8D811126
:100430000DC080910F02882349F0CE010E949807D9
:1004400080912302909124020E94CA018F8D8823FB
:1004500091F08E8D81110FC080910C02882359F08C
:10046000CE010E94980780911F0290912002DF9197
:10047000CF910C949802DF91CF910895CF93DF93A1
:10048000EC010E94BB07CE010E940702CE01DF9162
:10049000CF910C941002CF93DF93EC010E9496074A
:1004A000CE01DF91CF910C946B07CF93DF93EC01DA
:1004B0000E94A0074FEF5FEF61E089E090E00E94AB
:1004C0002A064FEF5FEF60E08BE090E00E942A0683
:1004D0004FEF5FEF60E08AE090E00E942A064FEF66
:1004E0005FEF60E088E090E00E942A06CE01DF9195
:1004F000CF910C94A007FC01278D222321F0268D9B
:1005000021110C9455020895FC01278D222379F0C6
:10051000268D21110CC020910902222341F00E9456
:10052000980780911D0290911E020C94DA030895A1
:10053000CF93DF93EC010E94BB07CE010E947B02A8
:10054000CE01DF91CF910C948402CF93DF93EC0125
:100550000E949607CE01DF91CF910C946B07CF9349
:10056000DF93EC010E94A0074FEF5FEF61E08AE0AC
:1005700090E00E942A064FEF5FEF60E08BE090E092
:100580000E942A064FEF5FEF60E089E090E00E9452
:100590002A064FEF5FEF60E088E090E00E942A06B5
:1005A000CE01DF91CF910C94A007FC01278D22236F
:1005B00021F0268D21110C94AF020895CF93DF9383
:1005C000EC018F8D882381F08E8D81110DC080917B
:1005D0000602882349F0CE010E94980780912502E7
:1005E000909126020E9480038F8D882391F08E8D3A
:1005F00081110FC080910302882359F0CE010E941F
:10060000980780911D0290911E02DF91CF910C946A
:10061000DA03DF91CF910895CF93DF93EC010E942D
:10062000BB07CE010E94D502CE01DF91CF910C9481
:10063000DE02CF93DF93EC010E949607CE01DF919B
:10064000CF910C946B07CF93DF93EC010E94A0072E
:100650004FEF5FEF61E08BE090E00E942A064FEFE2
:100660005FEF60E08AE090E00E942A064FEF5FEFC4
:1006700060E088E090E00E942A064FEF5FEF60E0C4
:1006800089E090E00E942A06CE01DF91CF910C9480
:10069000A007FC01278D222321F0268D21110C9427
:1006A00023030895CF93DF93EC018F8D882381F08E
:1006B0008E8D81110DC080910002882349F0CE01FA
:1006C0000E94980780912102909122020E940C03BF
:1006D0008F8D882391F08E8D81110FC08091FD0147
:1006E000882359F0CE010E94980780911D029091B5
:1006F0001E02DF91CF910C94DA03DF91CF91089520
:10070000CF93DF93EC010E94BB07CE010E94490307
:10071000CE01DF91CF910C945203CF93DF93EC0184
:100720000E949607CE01DF91CF910C946B07CF9377
:10073000DF93EC010E94A0074FEF5FEF61E08BE0D9
:1007400090E00E942A064FEF5FEF61E08AE090E0C0
:100750000E942A064FEF5FEF61E088E090E00E9480
:100760002A064FEF5FEF61E089E090E00E942A06E1
:10077000CE01DF91CF910C94A007FC01278D22239D
:1007800021F0268D21110C9497030895FC01278DEB
:10079000222379F0268D21110CC02091FA01222309
:1007A00041F00E94980780912302909124020C94BA
:1007B000CA010895CF93DF93EC010E94BB07CE01DD
:1007C0000E94BD03CE01DF91CF910C94C603CF935D
:1007D000DF9300D0CDB7DEB72091F0033091F10365
:1007E0002115310511F424EF33E0CE010196821B6F
:1007F000930B0F900F90DF91CF9108950F931F935C
:10080000CF93DF93CDB7DEB76A970FB6F894DEBF0C
:100810000FBECDBF8AE1E1E1F1E08E010F5F1F4F16
:10082000D80101900D928A95E1F7662339F00E9474
:10083000E7039F938F938EE091E006C00E94E70349
:100840009F938F9386E091E09F938F931F930F93D5
:100850000E94AC110F900F900F900F900F900F907F
:100860006A960FB6F894DEBF0FBECDBFDF91CF9171
:100870001F910F91089561E088E00E94C50F61E02B
:1008800089E00E94C50F61E08AE00E94C50F61E027
:100890008BE00E94C50F61E08BE00E94C50F26E04F
:1008A00040E855E260E070E086E493E00E942B0CA3
:1008B00060E770E086E493E00E94A00D60E080E0D5
:1008C00090E00E94FE0348E750E063E084E00E946D
:1008D0001C0B61E08DE00E94C50F61E08CE00E947E
:1008E000C50F68E670E086E493E00E94A00D60E02A
:1008F00080E090E00E94FE030E9442060C9458069D
:100900000F931F93CF93DF9300D000D0CDB7DEB706
:100910001092F6010E94E30A882309F44DC00E9458
:10092000F70A082F112707FD1095063B8FEF1807D0
:1009300018F081E08093F7018091F7018823E1F1BD
:100940001092F701033C8FEF1807B1F181E080931B
:10095000F601055B1F4FC8010E94DC051F930F9332
:100960008BE291E09F938F93CE0101969F938F939B
:100970000E94AC114AE050E0B80186E493E00E9486
:10098000670E8091F2019091F301A091F401B09172
:10099000F5010196A11DB11D8093F2019093F30121
:1009A000A093F401B093F5010E94C2060F900F903E
:1009B0000F900F900F900F900F900F900F900F903F
:1009C000DF91CF911F910F91089588EF91E00C94E2
:1009D0001B0B10921602109213021092100210922A
:1009E0000D0210920A021092070210920402109255
:1009F00001021092FE011092FB01089590911602DF
:100A0000992329F08091140221E0822701C080E01F
:100A10008093150290931402992331F06FE271E0F4
:100A200086E493E00E94B20D90911302992329F07D
:100A30008091110221E0822701C080E080931202A0
:100A400090931102992331F068E371E086E493E01A
:100A50000E94B20D90911002992329F080910E020C
:100A600021E0822701C080E080930F0290930E0264
:100A7000992331F065E471E086E493E00E94B20DC1
:100A800090910D02992329F080910B0221E0822799
:100A900001C080E080930C0290930B02992331F007
:100AA00061E571E086E493E00E94B20D90910A0244
:100AB000992329F08091080221E0822701C080E07B
:100AC0008093090290930802992331F06AE571E05E
:100AD00086E493E00E94B20D90910702992329F0D9
:100AE0008091050221E0822701C080E08093060208
:100AF00090930502992331F062E671E086E493E079
:100B00000E94B20D90910402992329F08091020273
:100B100021E0822701C080E08093030290930202CB
:100B2000992331F06AE671E086E493E00E94B20D09
:100B300090910102992329F08091FF0121E0822701
:100B400001C080E0809300029093FF01992331F06F
:100B500062E771E086E493E00E94B20D9091FE019D
:100B6000992329F08091FC0121E0822701C080E0D7
:100B70008093FD019093FC01992331F069E771E0C6
:100B800086E493E00E94B20D9091FB01992329F035
:100B90008091F90121E0822701C080E08093FA0171
:100BA0009093F901992331F063E871E086E493E0D2
:100BB0000C94B20D08950895CF93DF93EC010E9439
:100BC000BE06C130D10521F481E0809313023FC0FD
:100BD000C230D10521F481E08093100238C0C330C7
:100BE000D10521F481E080930D0231C0C430D105DC
:100BF00021F481E080930A022AC0C530D10521F496
:100C000081E08093160223C0C630D10521F481E033
:100C1000809304021CC0C930D10521F481E0809387
:100C2000070215C0CA30D10521F481E0809301028A
:100C30000EC0C730D10521F481E08093FE0107C0CA
:100C4000289721F481E08093FB0101C080E0DF91CF
:100C5000CF910895962F40911702509118026091FC
:100C6000190270911A024F5F5F4F6F4F7F4F409391
:100C70001702509318026093190270931A02692F99
:100C80000C94FE0F0895E0912702F0912802EE30B7
:100C9000F1056CF49F012F5F3F4F309328022093A2
:100CA0002702EE0FFF1FE75DFD4F918380830895BC
:100CB000CF93DF93E9E2F2E01192119282E0E73400
:100CC000F807D1F780E290E00E94090FEC010E9442
:100CD0001903D0932602C0932502CE010E94430639
:100CE00080E290E00E94090FEC010E946301D09322
:100CF0002402C0932302CE010E94430680E290E0CA
:100D00000E94090FEC010E94A502D0932202C09319
:100D10002102CE010E94430680E290E00E94090F6A
:100D2000EC010E944B02D0932002C0931F02CE011F
:100D30000E94430680E290E00E94090FEC010E94AD
:100D40008D03D0931E02C0931D02CE010E94430664
:100D500080E290E00E94090FEC010E94D701D0933D
:100D60001C02C0931B02CE01DF91CF910C9443066D
:100D700080912302909124020C94CA0181E0809317
:100D800047020895CF93DF930E94FE0480912502CD
:100D900090912602FC01278D222329F0268D211116
:100DA00002C00E9480038091230290912402FC01E2
:100DB000278D222329F0268D211102C00E94CA010D
:100DC0008091210290912202FC01278D222329F09B
:100DD000268D211102C00E940C0380911F02909168
:100DE0002002FC01278D222329F0268D211102C02B
:100DF0000E94980280911D0290911E02FC01278D95
:100E0000222329F0268D211102C00E94DA0380914D
:100E10001B0290911C02FC01278D222329F0268DB4
:100E2000211102C00E943E02E0912502F0912602AB
:100E3000868D882321F1E0912302F0912402868D92
:100E40008823E9F0E0912102F0912202868D882327
:100E5000B1F0E0911F02F0912002868D882379F095
:100E6000E0911D02F0911E02868D882341F0E091F1
:100E70001B02F0911C02868D81110E94B8068091A0
:100E80004702882399F08091480290914902A091ED
:100E90004A02B0914B020196A11DB11D80934802F8
:100EA00090934902A0934A02B0934B020E94DB0543
:100EB000C9E2D2E089919991009711F00E94160839
:100EC000F2E0C734DF07B1F7DF91CF910C94E9046A
:100ED000089508950895CF93DF93EC0181E08E8FFC
:100EE0008F8F0E94550F6A8F7B8F8C8F9D8F1B86F3
:100EF0001A861D861C861F821E821986188688E621
:100F000097E09F878E87198A188A89E697E09B8BDE
:100F10008A8B1D8A1C8A8AE697E09F8B8E8B198E9E
:100F2000188E19821882DF91CF9108950C946B0767
:100F3000FC01138612861586148681E0868F08953B
:100F4000FC01168E0895CF93DF93EC014A875B87EF
:100F50006C877D870E94550F6A8F7B8F8C8F9D8F4A
:100F60004A855B856C857D854E835F83688779873D
:100F7000DF91CF910895CF93DF93DC015F968C9141
:100F80005F97882309F44FC05E968C915E9781111C
:100F90004AC01A96ED91FC911B971C962D913C919D
:100FA0001D97309749F420FD07C01E964D915D9125
:100FB0006D917C9151971AC01E968D919C911F97AF
:100FC000E817F907C1F450968D919C915197281715
:100FD000390731F0309799F4822B932B80FD0DC0A7
:100FE00012964D915D916D917C911597CD01DF9198
:100FF000CF910C94A307309711F420FF14C0C901BE
:101000009595879520FF0AC0ED01C80FD91F09905B
:10101000D881C02DCE0FDF1FE881F9818A0F9B1F79
:10102000DF91CF910994DF91CF91089508956132B6
:1010300098F42091B902243089F460936E02FC0187
:1010400080E792E0DC012A2F281B261718F4219153
:101050002D93F9CF80E0089581E0089582E008950E
:1010600085ED8093BC008091BC0084FDFCCF109284
:10107000B902089585EC8093BC001092B9020895DE
:101080001F920F920FB60F9211242F933F934F93FD
:101090005F936F937F938F939F93AF93BF93EF93E0
:1010A000FF938091B900887F803609F49CC068F571
:1010B000883209F45BC090F4803109F454C038F4EC
:1010C000882309F4F5C0883009F44DC0F5C0883193
:1010D00009F44CC0803209F45DC0EEC0803409F4DC
:1010E00068C048F4803309F455C0883309F0E4C07F
:1010F00080934C02A8C0803509F44FC0883509F4AC
:101100005DC0883409F0D8C0D5C0883909F4C6C09C
:10111000A8F4883709F467C038F4883609F463C046
:10112000803709F460C0C8C0883809F4B7C0803976
:1011300009F45FC0803809F0BFC05BC0803B09F490
:1011400085C038F4803A09F466C0883A09F47EC054
:10115000B3C0803C09F4A6C0883C09F4A3C0883B16
:1011600009F489C0A9C08091B80210C09091910281
:1011700080919002981770F5E091910281E08E0FB6
:1011800080939102F0E0EE56FD4F80818093BB008A
:1011900085EC85C080934C028DC0E091910281E086
:1011A0008E0F809391028091BB00F0E0EE56FD4FD0
:1011B000808390919102809190026DC0E0919102A4
:1011C00081E08E0F809391028091BB00F0E0EE569B
:1011D000FD4F80838091B70281116CC081E08093C4
:1011E000B60284EA60C083E08093B90210924D0297
:1011F000CFCF80914D02803208F050C0E0914D0277
:1012000081E08E0F80934D028091BB00F0E0E25BA5
:10121000FD4F8083BDCF80914D02803230F4E0914C
:101220004D02F0E0E25BFD4F10820E9430086091B9
:101230004D0270E0E091B202F091B3028EE492E0D0
:10124000099510924D020E943A0836C084E08093BE
:10125000B90210926F0210926E02E091B402F09106
:10126000B502099580916E02811105C081E08093DD
:101270006E0210927002E0916F0281E08E0F8093F7
:101280006F02F0E0E059FD4F80818093BB009091A8
:101290006F0280916E02981708F47ACF85E88093E8
:1012A000BC000AC085EC8093BC001092B90204C057
:1012B00010924C020E943008FF91EF91BF91AF91C4
:1012C0009F918F917F916F915F914F913F912F915E
:1012D0000F900FBE0F901F9018958091E90290E03B
:1012E0002091EA02821B910908952091EA028091DF
:1012F000E902281750F4E22FF0E0E551FD4F80811C
:1013000090E02F5F2093EA0208958FEF9FEF0895FA
:10131000E091EA028091E902E81730F4F0E0E5514B
:10132000FD4F808190E008958FEF9FEF089508951D
:10133000CF92DF92EF92FF920F931F93CF93DF93A1
:101340007C01CB018A012091C602222389F0EB01A6
:101350006B01C40ED51ECC15DD0569F06991D7016E
:10136000ED91FC910190F081E02DC7010995F3CF3B
:10137000642F0E941708C801DF91CF911F910F9130
:10138000FF90EF90DF90CF900895CF93DF931F925F
:10139000CDB7DEB769832091C6022223D1F0209118
:1013A000C702203240F021E030E0FC013383228389
:1013B00080E090E015C08091C802E82FF0E0E7538C
:1013C000FD4F998190838F5F8093C8028093C702FD
:1013D00005C061E0CE0101960E94170881E090E00F
:1013E0000F90DF91CF910895FC011382128248EE95
:1013F00053E060E070E0448355836683778380E93F
:1014000091E09183808308958AEB92E00C94F40933
:10141000209112033091130390910B03D901A05F27
:10142000BE4F8091170340911803841304C090931A
:101430000B0380E008958F5F8D3208F080E0E82F85
:10144000F0E0E75EFC4FE08180931703EE2379F331
:10145000E03F11F49160E5CFE03E11F49260E1CFFE
:1014600090FF0EC0E23111F49B7F08C0E93511F402
:10147000977F04C0E13111F491FD9F7E9C7FD1CF15
:10148000E23111F49460CDCFE93511F49860C9CF01
:10149000E13111F491FD906191FF08C0EA54E43309
:1014A00018F5F0E0E456FE4FE0811FC094FF09C03C
:1014B0008C91882331F0E838B8F4F0E0EF5EFE4F0D
:1014C00008C0892F8C7041F0E83870F4F0E0E857DC
:1014D000FF4FE20FF31F06C0E83830F4A9014E0FAA
:1014E000511DFA01E49101C0E0E09C7FEE2309F474
:1014F00098CF90930B038E2F0895CF92DF92EF92A7
:10150000FF920F931F93CF93DF93809116030E9456
:101510003410EC010E94550F00910E0310910F033F
:1015200020911003309111036B017C01C01AD10A84
:10153000E20AF30A970186010B3F110521053105E7
:1015400020F010920D0310920C0360930E03709321
:101550000F03809310039093110390910D038FEF6D
:10156000890F883050F4DD2701C0CC0F8A95EAF747
:1015700080910C038C2B80930C0381E0890F809366
:101580000D038B30B9F4809118038F5F8D3208F012
:1015900080E090911703891749F0E82FF0E09091CF
:1015A0000C03E75EFC4F90838093180310920D03A9
:1015B00010920C03DF91CF911F910F91FF90EF904C
:1015C000DF90CF9008958091150381110EC0809116
:1015D000140381110AC00E94080A982F80931503F2
:1015E00081E0911103C080E0089581E00895809129
:1015F0001403882319F01092140318C08091150366
:10160000882319F01092150302C00E94080A87FF70
:101610000BC0982F9F7390689093140382958695C2
:1016200086958370806C02C0882311F090E0089545
:101630008FEF9FEF08950895CF93DF93D82FC62F94
:1016400080931603509313034093120362E08C2F90
:101650000E94C50F62E08D2F0E94C50FC23031F08D
:10166000C33011F08FEF03C081E001C080E0109221
:101670001803109217038F3F41F042E050E06DE7EE
:101680007AE0DF91CF910C947F0EDF91CF91089596
:10169000FC01818D228D90E0805C9F4F821B91091F
:1016A0008F7399270895FC01918D828D981731F0E1
:1016B000828DE80FF11D858D90E008958FEF9FEFEB
:1016C0000895FC01918D828D981761F0828DDF0164
:1016D000A80FB11D5D968C91928D9F5F9F73928F25
:1016E00090E008958FEF9FEF089585EE9CE0892BA1
:1016F00049F080E090E0892B29F00E94E50C8111EF
:101700000C9400000895FC01848DDF01A80FB11D29
:10171000A35ABF4F2C91848D90E001968F73992727
:10172000848FA689B7892C93A089B1898C91806414
:101730008C93938D848D981306C00288F389E02DD5
:1017400080818F7D80830895CF93DF93EC01888D16
:101750008823C9F0EA89FB89808185FD05C0A889B5
:10176000B9898C9186FD0FC00FB607FCF5CF80813B
:1017700085FFF2CFA889B9898C9185FFEDCFCE0185
:101780000E94830BE7CFDF91CF910895CF92DF9234
:10179000FF920F931F93CF93DF931F92CDB7DEB7C6
:1017A0006C0181E0D60158968C9358975B969C917A
:1017B0005B975C968C915C97981307C05096ED915F
:1017C000FC915197808185FD2EC0F601038D10E0BC
:1017D0000F5F1F4F0F731127F02EF601848DF81243
:1017E00011C00FB607FCF9CFD6015096ED91FC91D0
:1017F0005197808185FFF1CFC60169830E94830BD9
:101800006981EBCF838DE80FF11DE35AFF4F6083B1
:10181000D6015B960C935B975296ED91FC91539792
:10182000808180620CC0D6015696ED91FC9157974D
:1018300060835096ED91FC91519780818064808304
:1018400081E090E00F90DF91CF911F910F91FF9079
:10185000DF90CF900895BF92CF92DF92EF92FF92E8
:10186000CF93DF93EC016A017B01B22EE889F989FD
:1018700082E08083411581EE580761057105A1F072
:1018800060E079E08DE390E0A70196010E945D1091
:1018900021503109410951095695479537952795AA
:1018A000211580E1380798F0E889F989108260E80D
:1018B00074E88EE190E0A70196010E945D1021502E
:1018C0003109410951095695479537952795EC857A
:1018D000FD853083EE85FF852083188EEC89FD8998
:1018E000B082EA89FB89808180618083EA89FB89F3
:1018F000808188608083EA89FB8980818068808319
:10190000EA89FB8980818F7D8083DF91CF91FF9071
:10191000EF90DF90CF90BF9008951F920F920FB677
:101920000F9211242F938F939F93EF93FF93E09146
:101930005603F09157038081E0915C03F0915D03C1
:1019400082FD12C0908180915F038F5F8F73209121
:101950006003821751F0E0915F03F0E0EA5BFC4F17
:10196000958F80935F0301C08081FF91EF919F91DC
:101970008F912F910F900FBE0F901F9018951F926F
:101980000F920FB60F9211242F933F934F935F93B3
:101990006F937F938F939F93AF93BF93EF93FF9337
:1019A00086E493E00E94830BFF91EF91BF91AF918A
:1019B0009F918F917F916F915F914F913F912F9167
:1019C0000F900FBE0F901F90189586E493E00E9431
:1019D000480B21E0892B09F420E0822F0895109212
:1019E00049031092480388EE93E0A0E0B0E08093B2
:1019F0004A0390934B03A0934C03B0934D0384EDA3
:101A000091E0909347038093460385EC90E0909398
:101A100053038093520384EC90E09093550380939A
:101A2000540380EC90E0909357038093560381EC2D
:101A300090E0909359038093580382EC90E0909348
:101A40005B0380935A0386EC90E090935D03809350
:101A50005C0310925F031092600310926103109276
:101A600062030895CF92DF92EF92FF920F931F933C
:101A7000CF93DF936C017A01EB01E60EF71E00E0D5
:101A800010E0CE15DF0561F06991D601ED91FC9172
:101A90000190F081E02DC6010995080F191FF1CFC3
:101AA000C801DF91CF911F910F91FF90EF90DF90D0
:101AB000CF9008956115710581F0DB010D90002034
:101AC000E9F7AD0141505109461B570BDC01ED917F
:101AD000FC910280F381E02D099480E090E008956C
:101AE000EF92FF920F931F93CF93DF938C01FB0133
:101AF000C0E0D0E064917F018FEFE81AF80A662316
:101B000061F0D801ED91FC910190F081E02DC801C8
:101B10000995C80FD91FF701EDCFCE01DF91CF9105
:101B20001F910F91FF90EF900895DC01ED91FC91D2
:101B30000190F081E02D099460EE71E00C945A0D53
:101B40000F931F93CF93DF93EC010E94700D8C01D4
:101B5000CE010E949C0D800F911FDF91CF911F91AC
:101B60000F9108950F931F93CF93DF93EC010E9481
:101B70005A0D8C01CE010E949C0D800F911FDF91A8
:101B8000CF911F910F9108958F929F92AF92BF9224
:101B9000CF92DF92EF92FF920F931F93CF93DF9339
:101BA000CDB7DEB7A1970FB6F894DEBF0FBECDBF9D
:101BB0007C01C42EE52FCB01D22E19A221E02D15D8
:101BC00010F02AE0D22E8E010F5D1F4F8D2C912C2C
:101BD000A12CB12C6C2D7E2FA50194010E945D10CB
:101BE0008C2DD29E80191124015011098A3014F4D1
:101BF000805D01C0895CF8018083211531054105B4
:101C0000510521F0C22EE32FCA01E4CFB801C7016C
:101C10000E945A0DA1960FB6F894DEBF0FBECDBF3D
:101C2000DF91CF911F910F91FF90EF90DF90CF90B8
:101C3000BF90AF909F908F900895CF92DF92EF92D8
:101C4000FF920F931F93CF93DF93EC016A017B0107
:101C50002115310579F4E881F9810190F081E02DB9
:101C6000642FDF91CF911F910F91FF90EF90DF9044
:101C7000CF9009942A303105E9F477FF1AC06DE25C
:101C80000E94950D8C0144275527BA014C195D0916
:101C90006E097F092AE0CE010E94C40D800F911FBA
:101CA000DF91CF911F910F91FF90EF90DF90CF9038
:101CB00008952AE0B701A601CE01DF91CF911F91CF
:101CC0000F91FF90EF90DF90CF900C94C40D0F9385
:101CD0001F93CF93DF93EC019A01AB01662757FD69
:101CE0006095762F0E941D0E8C01CE010E949C0DE6
:101CF000800F911FDF91CF911F910F910895823036
:101D0000E8F4E82FF0E0EE0FFF1FED51FC4F718378
:101D10006083813041F0809169008C7F842B8093B7
:101D20006900E89A089580916900440F551F440F97
:101D3000551F837F842B80936900E99A08951F9231
:101D40000F920FB60F9211242F933F934F935F93EF
:101D50006F937F938F939F93AF93BF93EF93FF9373
:101D60008091E3039091E403892B29F0E091E30350
:101D7000F091E4030995FF91EF91BF91AF919F918D
:101D80008F917F916F915F914F913F912F910F9024
:101D90000FBE0F901F9018951F920F920FB60F92C3
:101DA00011242F933F934F935F936F937F938F9360
:101DB0009F93AF93BF93EF93FF938091E50390912F
:101DC000E603892B29F0E091E503F091E6030995FC
:101DD000FF91EF91BF91AF919F918F917F916F9103
:101DE0005F914F913F912F910F900FBE0F901F90D9
:101DF000189508950E94610F0E94F90E0E943B04FD
:101E0000C5E7DBE00E9480042097E1F30E94750B98
:101E1000F9CF0C9485101F920F920FB60F921124D8
:101E20002F933F938F939F93AF93BF938091E8033A
:101E30009091E903A091EA03B091EB033091E7039D
:101E400023E0230F2D3720F40196A11DB11D05C0FD
:101E500026E8230F0296A11DB11D2093E70380936E
:101E6000E8039093E903A093EA03B093EB03809116
:101E7000EC039091ED03A091EE03B091EF03019676
:101E8000A11DB11D8093EC039093ED03A093EE038D
:101E9000B093EF03BF91AF919F918F913F912F919D
:101EA0000F900FBE0F901F9018952FB7F894609168
:101EB000E8037091E9038091EA039091EB032FBF4F
:101EC0000895789484B5826084BD84B5816084BDB2
:101ED00085B5826085BD85B5816085BDEEE6F0E0A3
:101EE000808181608083E1E8F0E0108280818260FF
:101EF0008083808181608083E0E8F0E08081816080
:101F00008083E1EBF0E0808184608083E0EBF0E0AF
:101F1000808181608083EAE7F0E080818460808353
:101F200080818260808380818160808380818068FD
:101F300080831092C1000895833081F028F48130AD
:101F400099F08230A1F008958730A9F08830B9F077
:101F50008430D1F4809180008F7D03C08091800017
:101F60008F7780938000089584B58F7702C084B501
:101F70008F7D84BD08958091B0008F7703C08091DC
:101F8000B0008F7D8093B0000895CF93DF9390E0F1
:101F9000FC01EB5DFD4F2491FC01E75CFD4F84915A
:101FA000882349F190E0880F991FFC01EF59FD4FFC
:101FB000A591B491895A9D4FFC01C591D4919FB7C9
:101FC000611108C0F8948C91209582238C938881AC
:101FD00082230AC0623051F4F8948C91322F3095EC
:101FE00083238C938881822B888304C0F8948C91FE
:101FF000822B8C939FBFDF91CF9108950F931F93F6
:10200000CF93DF931F92CDB7DEB7282F30E0F901D1
:10201000EF5EFD4F8491F901EB5DFD4F1491F901E5
:10202000E75CFD4F04910023C9F0882321F0698308
:102030000E949C0F6981E02FF0E0EE0FFF1FE95A2C
:10204000FD4FA591B4919FB7F8948C91611103C095
:102050001095812301C0812B8C939FBF0F90DF913E
:10206000CF911F910F910895CF93DF93282F30E0E8
:10207000F901EF5EFD4F8491F901EB5DFD4FD491C5
:10208000F901E75CFD4FC491CC2391F081110E94CE
:102090009C0FEC2FF0E0EE0FFF1FE35BFD4FA591CF
:1020A000B4912C912D2381E090E021F480E002C0D6
:1020B00080E090E0DF91CF910895A1E21A2EAA1B53
:1020C000BB1BFD010DC0AA1FBB1FEE1FFF1FA217E8
:1020D000B307E407F50720F0A21BB30BE40BF50BE5
:1020E000661F771F881F991F1A9469F7609570956E
:1020F000809590959B01AC01BD01CF010895EE0F35
:10210000FF1F0590F491E02D0994CF93DF93823067
:10211000910510F482E090E0E091F203F091F30376
:1021200020E030E0A0E0B0E0309739F1408151810B
:1021300048175907B8F04817590771F482819381FD
:10214000109729F013969C938E9312972CC090931E
:10215000F3038093F20327C02115310531F04217B4
:10216000530718F0A901DB0101C0EF019A01BD017D
:10217000DF010280F381E02DD7CF21153105F9F081
:10218000281B390B2430310580F48A819B8161152D
:10219000710521F0FB019383828304C09093F303C4
:1021A0008093F203FE01329644C0FE01E20FF31F5A
:1021B0008193919322503109398328833AC0209129
:1021C000F0033091F103232B41F42091020130916F
:1021D00003013093F1032093F0032091000130912B
:1021E00001012115310541F42DB73EB7409104019D
:1021F00050910501241B350BE091F003F091F103A0
:10220000E217F307A0F42E1B3F0B2817390778F0CD
:10221000AC014E5F5F4F2417350748F04E0F5F1F2C
:102220005093F1034093F0038193919302C0E0E057
:10223000F0E0CF01DF91CF910895CF93DF93009726
:1022400009F487C0FC01329713821282C091F20315
:10225000D091F303209781F420813181280F391F19
:102260008091F0039091F1038217930779F5F09331
:10227000F103E093F0036DC0DE0120E030E0AE1723
:10228000BF0750F412964D915C9113979D01411533
:10229000510509F1DA01F3CFB383A2834081518163
:1022A000840F951F8A179B0771F48D919C9111974C
:1022B000840F951F02969183808312968D919C9135
:1022C0001397938382832115310529F4F093F30347
:1022D000E093F2033EC0D9011396FC93EE9312975C
:1022E0004D915D91A40FB51FEA17FB0779F480812A
:1022F0009181840F951F0296D90111969C938E931C
:102300008281938113969C938E931297E0E0F0E084
:102310008A819B81009719F0FE01EC01F9CFCE0173
:10232000029628813981820F931F2091F00330910A
:10233000F1032817390769F4309729F41092F30351
:102340001092F20302C013821282D093F103C09361
:10235000F003DF91CF910895AEE0B0E0E2EBF1E160
:102360000C9454140D891E8986E08C831A8309838A
:102370008FEF9FE79E838D83AE01475E5F4F6F892E
:10238000788DCE0101960E94CE11EF81F885E00F85
:10239000F11F10822E96E4E00C947014ACE0B0E0D3
:1023A000E4EDF1E10C9446147C016B018A01FC011F
:1023B00017821682838181FFBDC1CE0101964C0137
:1023C000F7019381F60193FD859193FF81916F0150
:1023D000882309F4ABC1853239F493FD859193FFCD
:1023E00081916F01853229F4B70190E00E94B61304
:1023F000E7CF512C312C20E02032A0F48B3269F051
:1024000030F4803259F0833269F420612CC08D326F
:1024100039F0803339F4216026C02260246023C063
:10242000286021C027FD27C030ED380F3A3078F4FE
:1024300026FF06C0FAE05F9E300D1124532E13C014
:102440008AE0389E300D1124332E20620CC08E326B
:1024500021F426FD6BC1206406C08C3611F420687F
:1024600002C0883641F4F60193FD859193FF819176
:102470006F018111C1CF982F9F7D9554933028F41F
:102480000C5F1F4FFFE3F9830DC0833631F08337B4
:1024900071F0833509F05BC022C0F8018081898327
:1024A0000E5F1F4F44244394512C540115C0380132
:1024B000F2E06F0E711CF801A080B18026FF03C00E
:1024C000652D70E002C06FEF7FEFC5012C870E9481
:1024D000AB132C0183012C852F77222E17C03801D6
:1024E000F2E06F0E711CF801A080B18026FF03C0DE
:1024F000652D70E002C06FEF7FEFC5012C870E9451
:10250000A0132C012C852068222E830123FC1BC0E4
:10251000832D90E048165906B0F4B70180E290E0B0
:102520000E94B6133A94F4CFF50127FC859127FE5B
:1025300081915F01B70190E00E94B61331103A9487
:10254000F1E04F1A51084114510471F7E5C0843687
:1025500011F0893639F5F80127FF07C060817181D4
:10256000828193810C5F1F4F08C060817181882731
:1025700077FD8095982F0E5F1F4F2F76B22E97FF15
:1025800009C090958095709561957F4F8F4F9F4FB3
:102590002068B22E2AE030E0A4010E94E813A82EA1
:1025A000A81844C0853729F42F7EB22E2AE030E0E7
:1025B00025C0F22FF97FBF2E8F36C1F018F4883571
:1025C00079F0B4C0803719F0883721F0AFC02F2FD1
:1025D0002061B22EB4FE0DC08B2D8460B82E09C0D0
:1025E00024FF0AC09F2F9660B92E06C028E030E075
:1025F00005C020E130E002C020E132E0F801B7FE82
:1026000007C060817181828193810C5F1F4F06C07A
:102610006081718180E090E00E5F1F4FA4010E94F5
:10262000E813A82EA818FB2DFF77BF2EB6FE0BC00F
:102630002B2D2E7FA51450F4B4FE0AC0B2FC08C0A6
:102640002B2D2E7E05C07A2C2B2D03C07A2C01C099
:10265000752C24FF0DC0FE01EA0DF11D8081803331
:1026600011F4297E09C022FF06C07394739404C03C
:10267000822F867809F0739423FD13C020FF06C0D3
:102680005A2C731418F4530C5718732C731468F4E1
:10269000B70180E290E02C870E94B61373942C85DA
:1026A000F5CF731410F4371801C0312C24FF12C079
:1026B000B70180E390E02C870E94B6132C8522FF9F
:1026C00017C021FF03C088E590E002C088E790E0D2
:1026D000B7010CC0822F867859F021FD02C080E23C
:1026E00001C08BE227FD8DE2B70190E00E94B61396
:1026F000A51438F4B70180E390E00E94B6135A9411
:10270000F7CFAA94F401EA0DF11D8081B70190E0A2
:102710000E94B613A110F5CF332009F451CEB701B2
:1027200080E290E00E94B6133A94F6CFF7018681DA
:10273000978102C08FEF9FEF2C96E2E10C94621418
:10274000FC010590615070400110D8F7809590957C
:102750008E0F9F1F0895FC01615070400190011081
:10276000D8F7809590958E0F9F1F08950F931F9314
:10277000CF93DF93182F092FEB018B8181FD03C0CD
:102780008FEF9FEF20C082FF10C04E815F812C81B0
:102790003D81421753077CF4E881F9819F012F5F47
:1027A0003F4F39832883108306C0E885F985812F40
:1027B0000995892B29F72E813F812F5F3F4F3F835A
:1027C0002E83812F902FDF91CF911F910F9108952C
:1027D000FA01AA27283051F1203181F1E8946F9352
:1027E0006E7F6E5F7F4F8F4F9F4FAF4FB1E03ED0F8
:1027F000B4E03CD0670F781F891F9A1FA11D680F96
:10280000791F8A1F911DA11D6A0F711D811D911DC8
:10281000A11D20D009F468943F912AE0269F11243D
:102820003019305D3193DEF6CF010895462F4770A1
:10283000405D4193B3E00FD0C9F7F6CF462F4F70FC
:10284000405D4A3318F0495D31FD4052419302D05A
:10285000A9F7EACFB4E0A695979587957795679500
:10286000BA95C9F700976105710508959B01AC0100
:102870000A2E06945795479537952795BA95C9F727
:10288000620F731F841F951FA01D08952F923F9202
:102890004F925F926F927F928F929F92AF92BF9270
:1028A000CF92DF92EF92FF920F931F93CF93DF931C
:1028B000CDB7DEB7CA1BDB0B0FB6F894DEBF0FBE79
:1028C000CDBF09942A88398848885F846E847D84C6
:1028D0008C849B84AA84B984C884DF80EE80FD80C8
:1028E0000C811B81AA81B981CE0FD11D0FB6F8943E
:0E28F000DEBF0FBECDBFED010895F894FFCFFF
:1028FE000000F40380006672656552616D3D2564CB
:10290E0000202020202020202020202020202020D9
:10291E002020202020202020202000462564006634
:10292E00625F7374617274006D61737465725F734C
:10293E0074617274006D61737465725F73746F701D
:10294E000073625F73746172740073625F73746F8D
:10295E0070006D5F73746172740066625F73746F82
:10296E0070006D5F73746F7000616C6C5F73746177
:10297E00727400616C6C5F73746F70000000000005
:10298E00C50998096D097509880997092F00000076
:10299E000000000000000000000000000D0000001C
:1029AE000000000000000000000000000008000011
:1029BE000000007F0A00150B000000001A0000192D
:1029CE0000000000C60B320D480B610B530BA40B1D
:1029DE000D0A006E616E00696E66006F7666002EDF
:0229EE000000E7
:00000001FF
